:040000000128FC2FA8
:10095C00F42600264230FD007D082000A7002C085C
:10096C00FD007D08A8004130FD007D08A9002D0880
:10097C00FD007D08AA002730FD007D08F80004303A
:10098C00C325080021001908873970389900170809
:10099C00C1392038970023008C0120008C012100E4
:1009AC008C0120000C168C16240015121417150837
:1009BC00F03902389500210017140800C8240725C7
:1009CC002000AB002B08AC0021000C152400951660
:1009DC0020008C1203302000AB009730890BF42CD4
:1009EC00AB0BF42C0032AE2407252000AB002B08F7
:1009FC00AD008C162400951221000C116300000030
:100A0C00E52CF10122001708FC39013897009717E3
:100A1C00171F0E2D21009E137C309D04FC309E056B
:100A2C001E088F3950389E001D140D30890B1C2D5B
:100A3C00000021009D149D18212D1C08F000700849
:100A4C00F1002200971321001D1071080800F1001D
:100A5C00F20120000C12803024009100141C342D63
:100A6C001108F0007008F20071089100141C3C2D64
:100A7C001108F0007008F2009101141C432D1108AC
:100A8C00F0007008F2009101141C4A2D1108F000BE
:100A9C007008F20020000C160800F500F40120008C
:100AAC000C12013024009100141C5A2D1108F20074
:100ABC007208F40075089100141C622D1108F200E4
:100ACC007208F400F601F7017708803AF2008030E2
:100ADC007202031D732D700876020318882D2400F2
:100AEC009101141C772D1108F20076087107F300A0
:100AFC00730886008701720881000130F607003008
:100B0C00F73D6A2D20000C160800F300F4012000BC
:100B1C000C1224009101141C912D1108F200720882
:100B2C00F40073089100141C992D1108F20072083E
:100B3C00F400F501F6017608803AF200803072027A
:100B4C00031DAA2D700875020318C02D75087107B6
:100B5C00F200720886008701010824009100141C21
:100B6C00B52D1108F2007208F4000130F5070030C1
:100B7C00F63DA12D20000C160800FB007B08F900A7
:100B8C007908F0007808FA007A08F100FF308B251C
:100B9C0066302D25F001F00A7C30F9007908F1005F
:100BAC00C1305325FE307C05F9001E307906031D3B
:100BBC00D02D60302D25F001F00A7C30F900790839
:100BCC00F100C1305325FE307C05F900BE307906AA
:100BDC00031DE12DF001F00A7C30F9007908F100D9
:100BEC00C1305325FE307C05F90006307906031917
:100BFC000800F02DF001F00A2230F8007808F1001E
:100C0C009E3053252000A217F001F00A2230F80084
:100C1C007808F1009E308B250D30F8007808200004
:100C2C00A2000530F8007808A3001E30F800780800
:100C3C00A400B130F8007808A5000430F80078085A
:100C4C00F0002230F9007908F10008308B252530AE
:100C5C00F80078082000A200F001F00A2230F80019
:100C6C007808F100A1308B25F001F00A2230F80051
:100C7C007808F100503053252000A214F001F00A3E
:100C8C002230F8007808F10050308B2566302D2585
:100C9C00F001F00A2630F8007808F100C130532535
:100CAC00FE3020002605F8001E307806031D4E2E5F
:100CBC00F001F00A2030F8007808F100E5305325F7
:100CCC0062302D25F001F00A2630F8007808F1008A
:100CDC00C1305325FE3020002605F800063078067A
:100CEC00031D682E65302D25F001F00A2630F80022
:100CFC007808F100C1305325FE3020002605F8009D
:100D0C001E307806031D7A2EF001F00A2130F8000F
:100D1C007808F100E530532562302D25F001F00AFA
:100D2C002630F8007808F100C1305325FE30200041
:100D3C002605F80006307806031D942EF001F00A03
:100D4C002230F8007808F10050305325FD30F800BF
:100D5C0078082000A205F001F00A2230F80078088B
:100D6C00F10050308B25F001F00A2230F8007808A1
:100D7C00F1009E3053257F30F80078082000A20542
:100D8C00F001F00A2230F8007808F1009E308B2533
:100D9C000630F80078082000A2008230F8007808AD
:100DAC00A3008F30F8007808A4005930F8007808B8
:100DBC00A5000430F8007808F0002230F90079081A
:100DCC00F10008308B250230F8007808F000203054
:100DDC00F9007908F1006E308B25080070302D2554
:100DEC000330F8009830890BF92EF80BF92ECA3025
:100DFC00F80078082000A000F001F00A2030F8007C
:100E0C007808F100B2308B250430F8007808200007
:100E1C00A000F001F00A2030F8007808F100A830AA
:100E2C008B25F001F00A2030F8007808F100A8308A
:100E3C0053252000A001F001F00A2030F8007808BA
:100E4C00F100A8308B253630F80078082000A0007F
:100E5C000630F8007808A1008230F8007808A2006B
:100E6C008F30F8007808A3005930F8007808A400F7
:100E7C00A501A50AAC30F8007808A6000730F800E8
:100E8C007808F0002030F9007908F10007308B2544
:100E9C002000A001A00AF001F00A2030F800780828
:100EAC00F10010308B25A330F80078082000A0004A
:100EBC000830F8007808A1005230F8007808A20039
:100ECC006230F8007808A300C830F8007808A40055
:100EDC000530F8007808F0002030F9007908F100AE
:100EEC001A308B256230F80078082000A000F00141
:100EFC00F00A2030F8007808F10025308B251530E9
:100F0C00F80078082000A000F001F00A2030F8006A
:100F1C007808F10027308B253F30F8007808200046
:100F2C00A0005030F8007808A1000230F8007808D2
:100F3C00F0002030F9007908F10032308B25413077
:100F4C00F80078082000A0004030F8007808A100D4
:100F5C00A201A20A0330F8007808F0002030F90052
:100F6C007908F1004F308B252000A001A10102303F
:100F7C00F8007808F0002030F9007908F1006E30A4
:100F8C008B25A030F80078082000A000F001F00AB2
:100F9C002030F8007808F1009F308B252530F800C0
:100FAC0078082000A000F001F00A2030F800780842
:100FBC00F100A1308B253530F80078082000A00016
:100FCC00F001F00A2030F8007808F100A3308B25EE
:100FDC002230F80078082000A000F001F00A203040
:100FEC00F8007808F100BC308B2508002000AD011A
:040FFC002000E42CC1
:020000040001F9
:04000E00ACEFFFFE56
:00000001FF
